:020000040000FA
:1020000037EF3FF0FFFFFFFFFFFFFFFFFFFFFFFF87
:10201000FFFFFFFFFFFFFFFFFFFFFFFFFFFFFFFFD0
:10202000FFFFFFFFFFFFFFFFFFFFFFFFFFFFFFFFC0
:10203000FFFFFFFFFFFFFFFFFFFFFFFFFFFFFFFFB0
:107E4000FFFFFFFFFFFFFFFFFFFFFFFFFFFFFFFF42
:107E5000FFFFFFFFFFFFFFFFFFFFFFFFFFFFFFFF32
:107E6000FFFFFFFFFFFFFFFFFFFFFFFFFFFF00011F
:107E70004FEF3FF060EC3FF03FEC3FF01200700E30
:107E8000D36E000ED26E800E9B6E000EB56ED2AE1B
:107E90004CEF3FF04EEF3FF047EF3FF012003AEC6F
:107EA0003FF080A456EF3FF058EF3FF05BEF3FF01C
:107EB000899851EF3FF0898851EF3FF000EF10F0C3
:107EC000000E8D6E000E8C6E000E896E000E8A6E96
:107ED000000E8B6E070E966EED0E926E9368C70EB7
:107EE000946E95680F015E69C40E5D6F3F0E5C6F06
:107EF000070E5F6F290E5B6F000E856EF18E12000C
:020000040030CA
:0400000003285F3C36
:0200060081FF78
:020000040020DA
:08000000020E0E0D00000000CD
:00000001FF
